{
  "_format": "hh-sol-artifact-1",
  "contractName": "AgriGrantSimpleDistribution",
  "sourceName": "contracts/AgriGrantSimpleDistribution.sol",
  "abi": [
    {
      "inputs": [],
      "stateMutability": "nonpayable",
      "type": "constructor"
    },
    {
      "anonymous": false,
      "inputs": [
        {
          "indexed": false,
          "internalType": "bool",
          "name": "isPaused",
          "type": "bool"
        }
      ],
      "name": "ContractPaused",
      "type": "event"
    },
    {
      "anonymous": false,
      "inputs": [
        {
          "indexed": true,
          "internalType": "address",
          "name": "farmer",
          "type": "address"
        }
      ],
      "name": "FarmerRegistered",
      "type": "event"
    },
    {
      "anonymous": false,
      "inputs": [
        {
          "indexed": true,
          "internalType": "address",
          "name": "admin",
          "type": "address"
        },
        {
          "indexed": false,
          "internalType": "uint256",
          "name": "amount",
          "type": "uint256"
        }
      ],
      "name": "FundsDeposited",
      "type": "event"
    },
    {
      "anonymous": false,
      "inputs": [
        {
          "indexed": true,
          "internalType": "address",
          "name": "farmer",
          "type": "address"
        },
        {
          "indexed": false,
          "internalType": "uint256",
          "name": "amount",
          "type": "uint256"
        }
      ],
      "name": "GrantDistributed",
      "type": "event"
    },
    {
      "anonymous": false,
      "inputs": [
        {
          "indexed": true,
          "internalType": "address",
          "name": "farmer",
          "type": "address"
        },
        {
          "indexed": false,
          "internalType": "uint256",
          "name": "amount",
          "type": "uint256"
        }
      ],
      "name": "GrantWithdrawn",
      "type": "event"
    },
    {
      "inputs": [],
      "name": "admin",
      "outputs": [
        {
          "internalType": "address",
          "name": "",
          "type": "address"
        }
      ],
      "stateMutability": "view",
      "type": "function"
    },
    {
      "inputs": [],
      "name": "depositFunds",
      "outputs": [],
      "stateMutability": "payable",
      "type": "function"
    },
    {
      "inputs": [
        {
          "internalType": "address payable",
          "name": "_farmer",
          "type": "address"
        },
        {
          "internalType": "uint256",
          "name": "_amount",
          "type": "uint256"
        }
      ],
      "name": "distributeGrant",
      "outputs": [],
      "stateMutability": "nonpayable",
      "type": "function"
    },
    {
      "inputs": [
        {
          "internalType": "address",
          "name": "",
          "type": "address"
        }
      ],
      "name": "farmerBalances",
      "outputs": [
        {
          "internalType": "uint256",
          "name": "",
          "type": "uint256"
        }
      ],
      "stateMutability": "view",
      "type": "function"
    },
    {
      "inputs": [
        {
          "internalType": "address",
          "name": "",
          "type": "address"
        }
      ],
      "name": "farmers",
      "outputs": [
        {
          "internalType": "bool",
          "name": "isRegistered",
          "type": "bool"
        },
        {
          "internalType": "uint256",
          "name": "grantsReceived",
          "type": "uint256"
        }
      ],
      "stateMutability": "view",
      "type": "function"
    },
    {
      "inputs": [],
      "name": "getAllFarmers",
      "outputs": [
        {
          "internalType": "address[]",
          "name": "",
          "type": "address[]"
        }
      ],
      "stateMutability": "view",
      "type": "function"
    },
    {
      "inputs": [],
      "name": "getContractBalance",
      "outputs": [
        {
          "internalType": "uint256",
          "name": "",
          "type": "uint256"
        }
      ],
      "stateMutability": "view",
      "type": "function"
    },
    {
      "inputs": [
        {
          "internalType": "address",
          "name": "farmer",
          "type": "address"
        }
      ],
      "name": "getFarmerBalance",
      "outputs": [
        {
          "internalType": "uint256",
          "name": "",
          "type": "uint256"
        }
      ],
      "stateMutability": "view",
      "type": "function"
    },
    {
      "inputs": [
        {
          "internalType": "address",
          "name": "_farmer",
          "type": "address"
        }
      ],
      "name": "getFarmerDetails",
      "outputs": [
        {
          "internalType": "bool",
          "name": "isRegistered",
          "type": "bool"
        },
        {
          "internalType": "uint256",
          "name": "grantsReceived",
          "type": "uint256"
        }
      ],
      "stateMutability": "view",
      "type": "function"
    },
    {
      "inputs": [
        {
          "internalType": "bool",
          "name": "_state",
          "type": "bool"
        }
      ],
      "name": "pauseContract",
      "outputs": [],
      "stateMutability": "nonpayable",
      "type": "function"
    },
    {
      "inputs": [],
      "name": "paused",
      "outputs": [
        {
          "internalType": "bool",
          "name": "",
          "type": "bool"
        }
      ],
      "stateMutability": "view",
      "type": "function"
    },
    {
      "inputs": [
        {
          "internalType": "address",
          "name": "_farmer",
          "type": "address"
        }
      ],
      "name": "registerFarmer",
      "outputs": [],
      "stateMutability": "nonpayable",
      "type": "function"
    },
    {
      "inputs": [
        {
          "internalType": "uint256",
          "name": "",
          "type": "uint256"
        }
      ],
      "name": "registeredFarmers",
      "outputs": [
        {
          "internalType": "address",
          "name": "",
          "type": "address"
        }
      ],
      "stateMutability": "view",
      "type": "function"
    },
    {
      "inputs": [
        {
          "internalType": "address",
          "name": "farmer",
          "type": "address"
        }
      ],
      "name": "sendGrant",
      "outputs": [],
      "stateMutability": "payable",
      "type": "function"
    },
    {
      "inputs": [],
      "name": "totalDeposited",
      "outputs": [
        {
          "internalType": "uint256",
          "name": "",
          "type": "uint256"
        }
      ],
      "stateMutability": "view",
      "type": "function"
    },
    {
      "inputs": [],
      "name": "totalDistributed",
      "outputs": [
        {
          "internalType": "uint256",
          "name": "",
          "type": "uint256"
        }
      ],
      "stateMutability": "view",
      "type": "function"
    },
    {
      "inputs": [],
      "name": "withdrawGrant",
      "outputs": [],
      "stateMutability": "nonpayable",
      "type": "function"
    }
  ],
  "bytecode": "0x608060405260008060146101000a81548160ff021916908315150217905550348015602957600080fd5b50336000806101000a81548173ffffffffffffffffffffffffffffffffffffffff021916908373ffffffffffffffffffffffffffffffffffffffff16021790555061199e806100796000396000f3fe6080604052600436106100fe5760003560e01c80639b9c267911610095578063e272b89211610064578063e272b8921461033c578063e2c41dbc14610365578063efca2eed1461036f578063f851a4401461039a578063ff50abdc146103c5576100fe565b80639b9c267914610268578063a5967b4b14610284578063ca51a4f8146102c1578063d335ccfa146102fe576100fe565b80635c975abb116100d15780635c975abb146101be5780636f9fb98a146101e9578063950f222e14610214578063992dbf7514610251576100fe565b80631d82d9cc14610103578063401b21681461012c5780634f514a301461016a578063536954e414610193575b600080fd5b34801561010f57600080fd5b5061012a6004803603810190610125919061123e565b6103f0565b005b34801561013857600080fd5b50610153600480360381019061014e91906112bc565b6106ad565b604051610161929190611313565b60405180910390f35b34801561017657600080fd5b50610191600480360381019061018c91906112bc565b6106de565b005b34801561019f57600080fd5b506101a86109e9565b6040516101b591906113fa565b60405180910390f35b3480156101ca57600080fd5b506101d3610a77565b6040516101e0919061141c565b60405180910390f35b3480156101f557600080fd5b506101fe610a8a565b60405161020b9190611437565b60405180910390f35b34801561022057600080fd5b5061023b600480360381019061023691906112bc565b610a92565b6040516102489190611437565b60405180910390f35b34801561025d57600080fd5b50610266610aaa565b005b610282600480360381019061027d91906112bc565b610c5e565b005b34801561029057600080fd5b506102ab60048036038101906102a69190611452565b610df7565b6040516102b8919061148e565b60405180910390f35b3480156102cd57600080fd5b506102e860048036038101906102e391906112bc565b610e36565b6040516102f59190611437565b60405180910390f35b34801561030a57600080fd5b50610325600480360381019061032091906112bc565b610e7f565b604051610333929190611313565b60405180910390f35b34801561034857600080fd5b50610363600480360381019061035e91906114d5565b610f09565b005b61036d610feb565b005b34801561037b57600080fd5b50610384611175565b6040516103919190611437565b60405180910390f35b3480156103a657600080fd5b506103af61117b565b6040516103bc919061148e565b60405180910390f35b3480156103d157600080fd5b506103da61119f565b6040516103e79190611437565b60405180910390f35b60008054906101000a900473ffffffffffffffffffffffffffffffffffffffff1673ffffffffffffffffffffffffffffffffffffffff163373ffffffffffffffffffffffffffffffffffffffff161461047e576040517f08c379a00000000000000000000000000000000000000000000000000000000081526004016104759061155f565b60405180910390fd5b600060149054906101000a900460ff16156104ce576040517f08c379a00000000000000000000000000000000000000000000000000000000081526004016104c5906115cb565b60405180910390fd5b81600460008273ffffffffffffffffffffffffffffffffffffffff1673ffffffffffffffffffffffffffffffffffffffff16815260200190815260200160002060000160009054906101000a900460ff1661055e576040517f08c379a000000000000000000000000000000000000000000000000000000000815260040161055590611637565b60405180910390fd5b814710156105a1576040517f08c379a0000000000000000000000000000000000000000000000000000000008152600401610598906116a3565b60405180910390fd5b8273ffffffffffffffffffffffffffffffffffffffff166108fc839081150290604051600060405180830381858888f193505050501580156105e7573d6000803e3d6000fd5b5081600460008573ffffffffffffffffffffffffffffffffffffffff1673ffffffffffffffffffffffffffffffffffffffff168152602001908152602001600020600101600082825461063a91906116f2565b92505081905550816002600082825461065391906116f2565b925050819055508273ffffffffffffffffffffffffffffffffffffffff167f2b4ce57f940201381a633093439427b832a8a6512c99f9dc44b62c556777255e836040516106a09190611437565b60405180910390a2505050565b60046020528060005260406000206000915090508060000160009054906101000a900460ff16908060010154905082565b60008054906101000a900473ffffffffffffffffffffffffffffffffffffffff1673ffffffffffffffffffffffffffffffffffffffff163373ffffffffffffffffffffffffffffffffffffffff161461076c576040517f08c379a00000000000000000000000000000000000000000000000000000000081526004016107639061155f565b60405180910390fd5b600060149054906101000a900460ff16156107bc576040517f08c379a00000000000000000000000000000000000000000000000000000000081526004016107b3906115cb565b60405180910390fd5b600460008273ffffffffffffffffffffffffffffffffffffffff1673ffffffffffffffffffffffffffffffffffffffff16815260200190815260200160002060000160009054906101000a900460ff161561084c576040517f08c379a000000000000000000000000000000000000000000000000000000000815260040161084390611772565b60405180910390fd5b60405180604001604052806001151581526020016000815250600460008373ffffffffffffffffffffffffffffffffffffffff1673ffffffffffffffffffffffffffffffffffffffff16815260200190815260200160002060008201518160000160006101000a81548160ff02191690831515021790555060208201518160010155905050600073ffffffffffffffffffffffffffffffffffffffff168173ffffffffffffffffffffffffffffffffffffffff1603610940576040517f08c379a0000000000000000000000000000000000000000000000000000000008152600401610937906117de565b60405180910390fd5b6003819080600181540180825580915050600190039060005260206000200160009091909190916101000a81548173ffffffffffffffffffffffffffffffffffffffff021916908373ffffffffffffffffffffffffffffffffffffffff1602179055508073ffffffffffffffffffffffffffffffffffffffff167fb823648a4f966454b9528e4cff62de3873b6d49fb7f49062b9a1840d252c239360405160405180910390a250565b60606003805480602002602001604051908101604052809291908181526020018280548015610a6d57602002820191906000526020600020905b8160009054906101000a900473ffffffffffffffffffffffffffffffffffffffff1673ffffffffffffffffffffffffffffffffffffffff1681526020019060010190808311610a23575b5050505050905090565b600060149054906101000a900460ff1681565b600047905090565b60056020528060005260406000206000915090505481565b600060149054906101000a900460ff1615610afa576040517f08c379a0000000000000000000000000000000000000000000000000000000008152600401610af1906115cb565b60405180910390fd5b6000600560003373ffffffffffffffffffffffffffffffffffffffff1673ffffffffffffffffffffffffffffffffffffffff16815260200190815260200160002054905060008111610b81576040517f08c379a0000000000000000000000000000000000000000000000000000000008152600401610b789061184a565b60405180910390fd5b6000600560003373ffffffffffffffffffffffffffffffffffffffff1673ffffffffffffffffffffffffffffffffffffffff168152602001908152602001600020819055503373ffffffffffffffffffffffffffffffffffffffff166108fc829081150290604051600060405180830381858888f19350505050158015610c0c573d6000803e3d6000fd5b503373ffffffffffffffffffffffffffffffffffffffff167fdce59fc7b8b185a882896cca7a033953e920a1712af333122d3b7ccd5f3c987782604051610c539190611437565b60405180910390a250565b60008054906101000a900473ffffffffffffffffffffffffffffffffffffffff1673ffffffffffffffffffffffffffffffffffffffff163373ffffffffffffffffffffffffffffffffffffffff1614610cec576040517f08c379a0000000000000000000000000000000000000000000000000000000008152600401610ce39061155f565b60405180910390fd5b600073ffffffffffffffffffffffffffffffffffffffff168173ffffffffffffffffffffffffffffffffffffffff1603610d5b576040517f08c379a0000000000000000000000000000000000000000000000000000000008152600401610d52906117de565b60405180910390fd5b60003411610d9e576040517f08c379a0000000000000000000000000000000000000000000000000000000008152600401610d95906118dc565b60405180910390fd5b34600560008373ffffffffffffffffffffffffffffffffffffffff1673ffffffffffffffffffffffffffffffffffffffff1681526020019081526020016000206000828254610ded91906116f2565b9250508190555050565b60038181548110610e0757600080fd5b906000526020600020016000915054906101000a900473ffffffffffffffffffffffffffffffffffffffff1681565b6000600560008373ffffffffffffffffffffffffffffffffffffffff1673ffffffffffffffffffffffffffffffffffffffff168152602001908152602001600020549050919050565b6000806000600460008573ffffffffffffffffffffffffffffffffffffffff1673ffffffffffffffffffffffffffffffffffffffff1681526020019081526020016000206040518060400160405290816000820160009054906101000a900460ff161515151581526020016001820154815250509050806000015181602001519250925050915091565b60008054906101000a900473ffffffffffffffffffffffffffffffffffffffff1673ffffffffffffffffffffffffffffffffffffffff163373ffffffffffffffffffffffffffffffffffffffff1614610f97576040517f08c379a0000000000000000000000000000000000000000000000000000000008152600401610f8e9061155f565b60405180910390fd5b80600060146101000a81548160ff0219169083151502179055507f752d7e161ff5146f80e3820893176eb40532811e5e20400dfdde57455213706a81604051610fe0919061141c565b60405180910390a150565b60008054906101000a900473ffffffffffffffffffffffffffffffffffffffff1673ffffffffffffffffffffffffffffffffffffffff163373ffffffffffffffffffffffffffffffffffffffff1614611079576040517f08c379a00000000000000000000000000000000000000000000000000000000081526004016110709061155f565b60405180910390fd5b600060149054906101000a900460ff16156110c9576040517f08c379a00000000000000000000000000000000000000000000000000000000081526004016110c0906115cb565b60405180910390fd5b6000341161110c576040517f08c379a000000000000000000000000000000000000000000000000000000000815260040161110390611948565b60405180910390fd5b346001600082825461111e91906116f2565b925050819055503373ffffffffffffffffffffffffffffffffffffffff167f543ba50a5eec5e6178218e364b1d0f396157b3c8fa278522c2cb7fd99407d4743460405161116b9190611437565b60405180910390a2565b60025481565b60008054906101000a900473ffffffffffffffffffffffffffffffffffffffff1681565b60015481565b600080fd5b600073ffffffffffffffffffffffffffffffffffffffff82169050919050565b60006111d5826111aa565b9050919050565b6111e5816111ca565b81146111f057600080fd5b50565b600081359050611202816111dc565b92915050565b6000819050919050565b61121b81611208565b811461122657600080fd5b50565b60008135905061123881611212565b92915050565b60008060408385031215611255576112546111a5565b5b6000611263858286016111f3565b925050602061127485828601611229565b9150509250929050565b6000611289826111aa565b9050919050565b6112998161127e565b81146112a457600080fd5b50565b6000813590506112b681611290565b92915050565b6000602082840312156112d2576112d16111a5565b5b60006112e0848285016112a7565b91505092915050565b60008115159050919050565b6112fe816112e9565b82525050565b61130d81611208565b82525050565b600060408201905061132860008301856112f5565b6113356020830184611304565b9392505050565b600081519050919050565b600082825260208201905092915050565b6000819050602082019050919050565b6113718161127e565b82525050565b60006113838383611368565b60208301905092915050565b6000602082019050919050565b60006113a78261133c565b6113b18185611347565b93506113bc83611358565b8060005b838110156113ed5781516113d48882611377565b97506113df8361138f565b9250506001810190506113c0565b5085935050505092915050565b60006020820190508181036000830152611414818461139c565b905092915050565b600060208201905061143160008301846112f5565b92915050565b600060208201905061144c6000830184611304565b92915050565b600060208284031215611468576114676111a5565b5b600061147684828501611229565b91505092915050565b6114888161127e565b82525050565b60006020820190506114a3600083018461147f565b92915050565b6114b2816112e9565b81146114bd57600080fd5b50565b6000813590506114cf816114a9565b92915050565b6000602082840312156114eb576114ea6111a5565b5b60006114f9848285016114c0565b91505092915050565b600082825260208201905092915050565b7f4f6e6c792061646d696e2063616e20706572666f726d20746869730000000000600082015250565b6000611549601b83611502565b915061155482611513565b602082019050919050565b600060208201905081810360008301526115788161153c565b9050919050565b7f436f6e7472616374206973207061757365640000000000000000000000000000600082015250565b60006115b5601283611502565b91506115c08261157f565b602082019050919050565b600060208201905081810360008301526115e4816115a8565b9050919050565b7f4661726d6572206e6f7420726567697374657265640000000000000000000000600082015250565b6000611621601583611502565b915061162c826115eb565b602082019050919050565b6000602082019050818103600083015261165081611614565b9050919050565b7f4e6f7420656e6f7567682062616c616e636520696e20636f6e74726163740000600082015250565b600061168d601e83611502565b915061169882611657565b602082019050919050565b600060208201905081810360008301526116bc81611680565b9050919050565b7f4e487b7100000000000000000000000000000000000000000000000000000000600052601160045260246000fd5b60006116fd82611208565b915061170883611208565b92508282019050808211156117205761171f6116c3565b5b92915050565b7f4661726d657220616c7265616479207265676973746572656400000000000000600082015250565b600061175c601983611502565b915061176782611726565b602082019050919050565b6000602082019050818103600083015261178b8161174f565b9050919050565b7f496e76616c6964206661726d6572206164647265737300000000000000000000600082015250565b60006117c8601683611502565b91506117d382611792565b602082019050919050565b600060208201905081810360008301526117f7816117bb565b9050919050565b7f4e6f206772616e7420617661696c61626c6520746f2077697468647261770000600082015250565b6000611834601e83611502565b915061183f826117fe565b602082019050919050565b6000602082019050818103600083015261186381611827565b9050919050565b7f4772616e7420616d6f756e74206d75737420626520677265617465722074686160008201527f6e207a65726f0000000000000000000000000000000000000000000000000000602082015250565b60006118c6602683611502565b91506118d18261186a565b604082019050919050565b600060208201905081810360008301526118f5816118b9565b9050919050565b7f4d7573742073656e6420736f6d65204554480000000000000000000000000000600082015250565b6000611932601283611502565b915061193d826118fc565b602082019050919050565b6000602082019050818103600083015261196181611925565b905091905056fea2646970667358221220ab652f0a0f9a1e8589bec7d06eea1d8f2731cd3b7a8aed28fd1af4839e90d92e64736f6c634300081c0033",
  "linkReferences": {},
  "deployedLinkReferences": {}
}